:020000040800F2
:10000000C007002001010008A7240008B51E000851
:100010009923000805040008F12D000800000000E5
:100020000000000000000000000000009926000809
:100030001F04000800000000472500089B26000858
:100040001B0100081B0100081B0100081B01000820
:100050001B0100081B0100081B0100081B01000810
:100060001B0100081B0100081B0100081B01000800
:100070001B0100081B0100081B0100081B010008F0
:100080001B0100081B0100081B0100081B010008E0
:100090001B0100081B0100081B0100081B010008D0
:1000A0001B0100081B0100081B0100081B010008C0
:1000B0001B010008192700081B0100081B0100088C
:1000C0001B0100081B0100081B0100081B010008A0
:1000D0001B010008E52D00081B0100081B0100089A
:1000E0001B0100081B0100081B010008DFF80CD0F1
:1000F00000F026F900480047A9300008C00700209A
:100100000648804706480047FEE7FEE7FEE7FEE7B1
:10011000FEE7FEE7FEE7FEE7FEE7FEE7172700083B
:10012000ED000008D2B201E000F8012B491EFBD21D
:1001300070470022F6E710B513460A4604461946F2
:10014000FFF7F0FF204610BDF0B480EA0102D40FA3
:100150004200B2EB410F02D20246084611464A0065
:1001600042D0C30DDDB2C1F3C752AD1A202D35DA2E
:10017000C1F3160141F4000204B15242C5F1200658
:1001800002FA06F12A411044B3EBD05F23D0C4B188
:10019000012DA0EBC35009DCF0BC4FF0004202EA95
:1001A000C352DBB200F5000000F09BB8400000F144
:1001B000807000EBC350A0F1807040EAD17049001C
:1001C00009E0490841EAC071A0EBC35000F5000006
:1001D000400800EBC350F0BC00F07AB86142012245
:1001E00002EB4101001BF6E7F0BC704781F00041D3
:1001F000AAE780F00040A7E780EA010210B502F00C
:100200000043400022D04A001FD0010E01EB1261D2
:10021000C0F35600C2F3560240F4000042F400025C
:10022000A0FB022000047F39140400D0401C50EAD7
:10023000124001D44000491EC2B20C0604EBD0109B
:10024000401C4008802A02D003E0002010BD20F0AE
:100250000100002900DA0020184310BD00F0004220
:1002600020F00040C10DC0F3160040F400007F29CB
:1002700001DA00207047962903DCC1F19601C840DD
:1002800001E096398840002AF4D0404270470000CF
:10029000002801DBC0F10040002901DBC1F1004171
:1002A0008842704730B50B460146002020220124C9
:1002B00009E021FA02F59D4205D303FA02F5491B34
:1002C00004FA02F52844151EA2F10102F1DC30BD4A
:1002D0000029A8BF7047401C490008BF20F001005A
:1002E000704710B4B0FA80FC00FA0CF050EA010438
:1002F00004BF10BC704749B1CCF1200421FA04F4CA
:1003000011FA0CF118BF012121430843A3EB0C01A2
:10031000CB1D4FEA00614FEA102042BF002010BC05
:10032000704700EBC35010440029A4BF10BC7047B5
:10033000401C490008BF20F0010010BC70470000BD
:10034000064C074D06E0E06840F0010394E8070022
:1003500098471034AC42F6D3FFF7CCFE5032000879
:100360007032000870B5044600688168C943C90747
:1003700017D1816821F00101816000F005FC05467C
:100380000AE000BF00F000FC401B022804D92068EE
:100390008068C043C00706D020688068C043C0079B
:1003A000F0D0002070BDA06A40F01000A062E06AAA
:1003B00040F00100E062012070BD000010B5014670
:1003C0000E4800F020F804460346042200210C48A1
:1003D00001F0E3FF23460C220821094801F0DDFF6C
:1003E000234604220021054801F0D7FF23460C22B2
:1003F000BDE810400821014801F0CFBFA000002057
:1004000030010020FEE7642900D964210068C06A39
:10041000401C41436420B1FBF0F080B2704770474C
:1004200070B56FF06302642801DD642002E0904241
:1004300000DA10460546642901DD642102E091429C
:1004400000DA11460C46002D14DBA9B22B48FFF749
:10045000DAFF034604220021284801F0BDFFA9B2BB
:100460002648FFF7D0FF03460C220821234801F05D
:10047000B3FF14E04542A9B22048FFF7C4FF03468A
:10048000042200211D4801F088FFA9B21B48FFF794
:10049000BAFF03460C220821184801F07EFF002C09
:1004A00015DBA1B21648FFF7AEFF03460422002178
:1004B000134801F091FFA1B21148FFF7A4FFBDE876
:1004C000704003460C2208210D4801F085BF6442AC
:1004D000A1B20B48FFF797FF03460422002108480A
:1004E00001F05BFFA1B20648FFF78DFFBDE8704049
:1004F00003460C220821024801F04FBF30010020C2
:10050000A000002072B6FEE710B501460E48FFF7C6
:100510007AFF04460346042200210C4801F05CFFE8
:1005200023460C220821094801F056FF23460422E5
:100530000021054801F050FF23460C22BDE8104081
:100540000821014801F048BFA00000203001002030
:1005500001682C4A012903D0D1B103D0D9B148E0B8
:10056000C16819B1C16801292BD042E04168012955
:1005700001D049B13DE08068012801D010B138E0D8
:100580002148704721487047806830BB2048704739
:10059000C168012902D0C168C9B12AE041680129B6
:1005A00001D021B125E0806801280ED021E08068CB
:1005B000012801D010B11CE0164870474FF081406F
:1005C000704741680129EED013E01046704741683A
:1005D000012903D041B104D049B10AE08168012961
:1005E00007D0806850B104E08168012903D0806899
:1005F00030B1002070474FF07E507047064870477A
:10060000064870470000A0400000A0C0000020C0C5
:10061000000080C000002040000080BF0000C842F1
:10062000F8B50024009490F824202546012A12D021
:10063000012280F824204A681F23072A0DD2066869
:10064000776B521E02EB820293409F430B689340EC
:100650001F43776319E00220F8BD06680D2A0AD20D
:10066000376BD21F02EB820293409F430B6893408B
:100670001F43376309E0F76A0D3A02EB82029340A9
:100680009F430B6893401F43F7620A68072306687D
:100690000A2A0AD3F7680A3A02EB420293409F43C0
:1006A0008B6893401F43F76008E0376902EB420212
:1006B00093409F438B6893401F4337610A68102A19
:1006C00001D0112A20D1124B02689A4217D19368A7
:1006D0001B0219D4936843F400039360096810293E
:1006E00012D10C490C4A0968B1FBF2F101EB81010E
:1006F000490000E0491E00910029FBD104E0816A15
:1007000041F020018162012480F824502046F8BD88
:10071000002401400C00002040420F002DE9F04170
:100720004FF0000704003D467ED0A06A002628B99D
:10073000E66284F82460204600F07EF82046FFF749
:1007400011FEA16AC90600D420B1A06A40F01000D1
:10075000A06269E0A16A21F4885141F00201A1621E
:100760006268E169237B0A4347EA43010A43A168BF
:100770004FF48077B94209D0012907D05FF000011A
:1007800094F814C0BCF1010F02D00AE03946F7E733
:10079000F3B1A36A43F02003A362E36A43F00103C9
:1007A000E3622368D3F804C02CF4694C4CEA010CD2
:1007B000C3F804C021688B68DFF870C003EA0C033B
:1007C00013438B60A168B9420BD0012909D00CE01A
:1007D000DFF85CC0A3690CEB43330B4343F40061C7
:1007E000DFE7218A0D05A5F580152168CB6A23F482
:1007F00070032B43CB62216889680E4B19409142EC
:1008000008D1E662A16A21F0020141F00101A16272
:10081000BDE8F081A06A20F0020040F01000A06264
:10082000E06A40F00100E0620120F1E7FDF7E1FF3E
:1008300000E0FFFFFE0E1FFF00B585B00021009114
:1008400001910291039100680E49884218D10E4827
:10085000816941F400718161816901F40071049141
:10086000816941F0080181618069694600F00800F2
:1008700004900120009003200190044800F08AF8C1
:1008800005B000BD0024014000100240000C0140F2
:1008900010B590F821100022022905D004218163AF
:1008A00080F82020012010BD01680B6823F00E03A2
:1008B0000B6001680B6823F001030B6090F8403077
:1008C000C46B012101FA03F3636080F8211080F802
:1008D0002020104610BD000010B590F82110002413
:1008E000022903D00421816301243DE001680A68E4
:1008F00022F00E020A6001680A6822F001020A6012
:100900001A4A0168914201D1012121E0174A1432AB
:10091000914201D110211BE0144A2832914201D1A9
:10092000891515E0114A3C32914201D189140FE03A
:100930000E4A5032914202D14FF4803108E00B4A06
:100940006432914202D14FF4801101E04FF0807186
:10095000064A083A5160012180F82110002180F8F0
:100960002010416B01B18847204610BD08000240AD
:1009700070B5044600F008F90546601C02D0044832
:100980000078044400F000F9401BA042FAD370BD87
:10099000000000202DE9F84FDFF8B8910024A9F1FC
:1009A000040B23460F2709F1040AABF1040EC9E03A
:1009B0000125A5402A40AA427DD1674ED1F804C046
:1009C000ACEB0608B44532D014DCBCF1030F3AD0CE
:1009D00009DCBCF1000F2AD0BCF1010F1CD0BCF126
:1009E000020F31D11DE0BCF1110F17D0BCF1120F75
:1009F0002AD119E0B8F5881F19D006DCB8F5803F78
:100A000015D0B8F5801F1FD111E0B8F5001F0ED02A
:100A1000B8F5041F18D10AE0CB6815E0CB681B1DA0
:100A200012E0CB6808330FE0CB680C330CE08B6826
:100A30002BB1012B4FF0080303D0456104E00423E0
:100A400002E0056100E00023FF2A01D8064601E02C
:100A500000F104064FEA840501D9A5F12005D6F876
:100A6000008007FA05FC28EA0C0803FA05F548EAB5
:100A70000508C6F800804D68ED0062D5374DAE69B7
:100A800046F00106AE61AD6924F0030605F00105EC
:100A90000095334D06EB050CDCF80850A607360F21
:100AA00007FA06F825EA0805DFF8B880404503D1C3
:100AB0004FF0000817E044E0DFF8AC80404502D179
:100AC0004FF001080FE0DFF8A480404502D14FF05D
:100AD000020808E0DFF89880404502D14FF0030893
:100AE00001E04FF0040808FA06F848EA0508CCF8D7
:100AF00008804D68D9F80060ED024D4601D51643D7
:100B000000E096432E604D68DAF80060AD0255466D
:100B100001D5164300E096432E604D68DBF8006077
:100B2000AD035D4601D5164300E096432E604D6847
:100B3000DEF80060ED03754601D5164300E09643EC
:100B40002E60641C0D682A46E5407FF431AFBDE895
:100B5000F88F00000804014000001110001002404E
:100B60000000014000080140000C0140001001405D
:100B7000001401408068084000D0012070470AB18D
:100B8000016170470904FBE7014880687047000075
:100B90000000002070B5040025D094F83D00002529
:100BA00020B984F83C50204600F0B8F8242084F89E
:100BB0003D002068016821F00101016020680168A2
:100BC00041F4004101602068016821F400410160A6
:100BD00000F078FA4D4A6168914201D84C4900E032
:100BE0004C49884201D2012070BD4B492368B0FBBB
:100BF000F1F15E6826F03F060E435E606368934243
:100C000006D94FF4967359434FF47A73B1FBF3F15D
:100C10002368491C1E6A26F03F0631431962616849
:100C2000914210D84900401EB0FBF1F2521CC2F3B1
:100C30000B02042A01D2042022E0B0FBF1F0401C98
:100C4000C0F30B001CE0A268F2B301EBC10303EB9D
:100C50000116431EB3FBF6F35B1C43F480431B05F4
:100C600049D092B301EBC10202EB0111401EB0FB6F
:100C7000F1F0401CC0F30B0040F4804040F4004011
:100C80002168CA694CF6FF739A431043C861D4E9DE
:100C9000071001432068026822F0C002114301607E
:100CA000D4E9030101432068826848F2FF339A4384
:100CB00011438160D4E9050108432168CA6822F024
:100CC000FF021043C86001E00EE016E020680168F2
:100CD00041F0010101602564202084F83D00256376
:100CE00084F83E50002070BD01EB4106431EB3FB6B
:100CF000F6F35B1CB3E70120C2E701EB4101401EA4
:100D0000B0FBF1F0401CC0F30B00B7E7A086010078
:100D100080841E0000093D0040420F0010B586B0DF
:100D200000210091019102910391006810498842CD
:100D30001BD1104CA06940F00800A061A069694671
:100D400000F0080004904FF44060009012200190E1
:100D5000032003900848FFF71DFEE06940F480007F
:100D6000E061E06900F48000049006B010BD00006E
:100D70000058004000100240000C01400248816809
:100D8000027811448160704700000020074810B5C8
:100D9000016841F010010160032000F075F80F2098
:100DA00000F006F800F024F8002010BD00200240FA
:100DB00070B50D4D04464FF47A712878B1FBF0F010
:100DC0000A490968B1FBF0F000F052FB48B9102C59
:100DD00007D200222146501E00F036F800206C6039
:100DE00070BD012070BD0000000000200C0000203C
:100DF0000C4808B5816941F001018161816901F008
:100E000001010091C16941F08051C161C06900F0E8
:100E1000805000900448416821F0E06141F0007189
:100E2000416008BD0010024000000140002809DBBD
:100E300000F01F02012191404009800000F1E020F4
:100E4000C0F8001170470000F0B40E4B1B680C4650
:100E5000C3F30223C3F10705042D00D90425191D8E
:100E6000072901D2002300E0DB1E012606FA05F166
:100E7000491E214099409E40761E16403143F0BCE9
:100E800001F0C8BF0CED00E0064900F00702086859
:100E90004FF6FF03184040EA0220034A104308605F
:100EA000704700000CED00E00000FA052DE9F84362
:100EB00005460078354CC00754D0E0690026C000D4
:100EC00008D4E06940F08050E061E069012600F05C
:100ED000805000902E480168C90512D401688046F0
:100EE00041F480710160FFF74FFE074605E000BF47
:100EF000FFF74AFEC01B642823D8D8F80000C005BD
:100F0000F6D5206A10F4407021D0A98801F4407110
:100F100081421CD0206A1F49012220F440700A60DF
:100F200000220A602062C00711D0FFF72DFE07469D
:100F300041F2883808E000BFFFF726FEC11B41459B
:100F400002D90320BDE8F883206A8007F4D5206A1F
:100F5000696820F44070084320621EB1E06920F007
:100F60008050E0612878800705D56068A96820F482
:100F70004040084360602878C00605D56068E9688D
:100F800020F48000084360600020DBE7001002408E
:100F900000700040400442422DE9F0470F46050032
:100FA00061D0434E306800F00700B84209D2306883
:100FB00020F0070038433060306800F00700B84286
:100FC00051D128683B4C810712D5400703D5606892
:100FD00040F4E06060602878000703D5606840F462
:100FE000605060606068A96820F0F00008436060AD
:100FF0002878C00728D06868012810D02168022806
:1010000010D0890700292EDA616821F0030101431D
:101010006160FFF7B9FD804641F288390DE0216833
:101020008903EFE78901EDE7FFF7AEFDA0EB0801CB
:10103000494502D90320BDE8F0876068696800F07F
:101040000C00B0EB810FEFD1306800F00700B84220
:101050000BD9306820F0070038433060306800F06A
:101060000700B84201D00120E5E72878400705D500
:101070006068E96820F4E060084360602878000751
:1010800006D56068296920F4605040EAC1006060BC
:1010900000F038F86168084AC1F30311515CC84098
:1010A0000649086006480068FFF782FE0020C2E794
:1010B0000020024000100240363200080C000020E0
:1010C000040000200448054900684968044AC1F347
:1010D0000221515CC84070470C0000200010024003
:1010E000463200080448054900684968044AC1F3CB
:1010F000C221515CC84070470C0000200010024023
:10110000463200080E4A51680E4801F00C03042BC9
:1011100011D0082B0FD10C48C1F38343C903C05C25
:101120000AD55168084AC1F34041921E515C054AF4
:101130005043B0FBF1F0704704494843704700004A
:101140000010024000127A002632000800093D001B
:101150002DE9F84F040070D02078C04DC00749D069
:101160006868C0F38100012807D06868C0F3810077
:10117000022809D16868C00306D52868800339D5DC
:1011800060680028E7D035E06068B0F5803F0BD09C
:1011900010B1B0F5A02F11D0286820F4803028605D
:1011A000286820F4802002E0286840F4803028601D
:1011B000606890B1FFF7E8FC06460AE0286840F452
:1011C00080202860F0E700BFFFF7DEFC801B64286A
:1011D00073D828688003F7D50CE0FFF7D5FC0646E6
:1011E00005E000BFFFF7D0FC801B6428F0D828681A
:1011F0008003F7D420789A4E80074FF001094FF012
:10120000000839D5686810F00C0F07D06868C0F383
:101210008100022809D16868C00306D428688007C5
:1012200014D52069012808D110E02069B0B1C6F8B2
:101230000090FFF7A9FC074605E00AE1FFF7A4FCD0
:10124000C01B0228C4D828688007F7D528686169C0
:1012500020F0F80040EAC10028600DE0C6F80080E8
:10126000FFF792FC074604E0FFF78EFCC01B022844
:1012700023D828688007F7D4207800072CD5794830
:10128000A169D9B1C0F80090FFF77EFC074604E0E1
:10129000FFF77AFCC01B02280FD8686A8007F7D5D1
:1012A00071484FF4FA510068B0FBF1F0009000BFB4
:1012B0000098411E0091FAD20EE080E0C0F8008054
:1012C000FFF762FC074604E0FFF75EFCC01B022844
:1012D00075D8686A8007F7D42078400760D5E86938
:1012E0000027C00008D4E86940F08050E861E86950
:1012F000012700F0805000905C480168C90513D4B4
:101300000168834641F480710160FFF73DFC82462D
:1013100006E000BFFFF738FCA0EB0A0064284ED8B7
:10132000DBF80000C005F5D5E06801280AD008B157
:10133000052813D0286A20F001002862286A20F0CE
:10134000040002E0286A40F001002862E06841F2EF
:10135000883B98B1FFF718FC82460BE0286A40F002
:1013600004002862EEE700BFFFF70EFCA0EB0A01C5
:1013700059455AD8286A8007F6D50CE0FFF704FCD7
:10138000824605E0FFF700FCA0EB0A0159454CD866
:10139000286A8007F6D41FB1E86920F08050E86120
:1013A000E06988B36968C1F38101022944D0022849
:1013B000C6F8608004D0FFF7E7FB044638E034E06D
:1013C000FFF7E2FB074604E0FFF7DEFBC01B022845
:1013D0002BD828688001F7D4206AB0F5803F05D16A
:1013E0006868A16820F4003008436860D4E9080107
:1013F0000843696821F4741108436860C6F8609076
:10140000FFF7C2FB044606E025E000BFFFF7BCFB88
:10141000001B022809D828688001F7D51BE000BF0F
:10142000FFF7B2FB001B022802D90320BDE8F88FAA
:1014300028688001F4D40EE00128F7D06868226A99
:1014400000F48031914204D1616A00F47010884246
:1014500001D00120EAE70020E8E700000010024088
:1014600000004242800442420C0000200070004014
:1014700010B5401EB0F1807F01D3012010BD4FF0A8
:10148000E02460610F21601701F0C4FC0020A0611E
:1014900007202061002010BD7047704770B590F89C
:1014A0003C20012A26D0012480F83C40022280F80A
:1014B0003D2003685A689D6822F070060A6832432E
:1014C0005A600D4B02689A4208D0B2F1804F05D0A5
:1014D0000A4B9A4202D00A4B9A4204D1496825F03D
:1014E00080031943916080F83D40002180F83C1052
:1014F000084670BD022070BD002C01400004004071
:101500000008004010B5040003D094F83D0010B16D
:1015100007E0012010BD002084F83C00204600F0C8
:101520001FF8022084F83D00211D206801F0FAF820
:10153000012084F8460084F83E0084F83F0084F8D7
:10154000400084F8410084F8420084F8430084F8A5
:10155000440084F8450084F83D00002010BD0000E0
:1015600008B501681648B1F1804F14D0154A914270
:1015700019D1C16941F00201C161C069002200F0C6
:101580000200009011461D20FFF75EFCBDE80840F8
:101590001D20FFF74BBCC16941F00101C161C06969
:1015A00000F0010009E0084A914207D1C16941F009
:1015B0000401C161C06900F00400009008BD000092
:1015C00000100240000400400008004090F83D1068
:1015D000012901D001207047022180F83D100168E7
:1015E000CA6842F00102CA6000680B49884208D00C
:1015F000B0F1804F05D00949884202D0084988429D
:1016000004D1816801F00701062903D0016841F087
:101610000101016000207047002C014000040040DF
:101620000008004070B5044690F83C0000250128F1
:1016300017D0012684F83C60022084F83D00206821
:10164000826822F0770222F47F4282600868502884
:1016500038D00DDC20284FD005DC90B3102811D1F4
:101660004AE0022070BD302846D040280AD13BE035
:1016700060282FD070280DD0B0F5805F03D0B0F572
:10168000005F12D0012584F83D60002084F83C0002
:10169000284670BDCB68D1E90121206801F08BF8A4
:1016A0002068816841F0770109E0CB68D1E9012128
:1016B000206801F080F82068816841F480418160F1
:1016C000E1E719E0CA684968206801F029F950216A
:1016D000206806E0CA684968206801F032F9602194
:1016E000206801F072F8CEE7CA684968206801F006
:1016F00017F940212068F4E7226801461046F0E718
:1017000070472DE9F04104460068C66805694FF04E
:101710000007A90713D5B10711D5F91E01610120F2
:101720002077206880698007204602D0FFF7E8FF15
:1017300004E000F0BBF8204600F04DF92777680779
:1017400016D5700714D521686FF0040008610220D7
:1017500020772068806910F4407F204602D0FFF790
:10176000CFFF04E000F0A2F8204600F034F927771C
:10177000280715D5300713D521686FF008000861D8
:10178000042020772068C0698007204602D0FFF738
:10179000B7FF04E000F08AF8204600F01CF9277734
:1017A000E80616D5F00614D521686FF01000086120
:1017B000082020772068C06910F4407F204602D0BE
:1017C000FFF79EFF04E000F071F8204600F003F9F7
:1017D0002777E80708D0F00706D021686FF00100EE
:1017E0000861204600F046F9280608D5300606D5DF
:1017F00021686FF0800008612046FFF74DFE680603
:1018000008D5700606D521686FF0400008612046B3
:1018100000F052F9A8060AD5B00608D521686FF085
:10182000200008612046BDE8F041FFF736BEBDE864
:10183000F081000000B585B0002100910191029176
:101840000391026815480221B2F1804F16D0144B63
:101850009A4211D1826942F0080282618069039143
:1018600000F0080004904FF47070CDE900010D48BD
:10187000694600BFFFF78EF805B000BD826942F0EF
:10188000040282618069039100F0040004900F203B
:10189000CDE9000169460448ECE700000010024071
:1018A00000080040000C014000080140704770B57E
:1018B000044690F83C0000260D4601280FD0012078
:1018C00084F83C006AB1042A1DD0082A2FD00C2AC3
:1018D0003FD00126002084F83C00304670BD022035
:1018E00070BD206800F07AFF2068816941F008012E
:1018F00081612068816921F004018161206881692A
:101900002A69114311E0206800F090FF2068816986
:1019100041F4006181612068816921F48061816105
:10192000206881692A6941EA02218161D2E7206841
:1019300000F0A8FF2068C16941F00801C16120687A
:10194000C16921F00401C1612068C1692A6911439C
:1019500011E0206800F0C2FF2068C16941F4006115
:10196000C1612068C16921F48061C1612068C169D9
:101970002A6941EA0221C161ACE710B5040003D035
:1019800094F83D0010B107E0012010BD002084F85C
:101990003C00204600F01EF8022084F83D00211D86
:1019A000206800F0BFFE012084F8460084F83E0065
:1019B00084F83F0084F8400084F8410084F8420035
:1019C00084F8430084F8440084F8450084F83D001E
:1019D000002010BD7047704710B50446022249B17F
:1019E00004290ED0082913D094F84100012816D0FC
:1019F000012010BD94F83E000128F9D184F83E2062
:101A00000FE094F83F000128F2D184F83F2008E06D
:101A100094F840000128EBD184F8402001E084F8DC
:101A200041200122206800F0B9FE0F492068884259
:101A300003D1426C42F4004242642068884208D0DC
:101A4000B0F1804F05D00949884202D00849884248
:101A500004D1816801F00701062903D0016841F033
:101A600001010160002010BD002C01400004004075
:101A70000008004000B5094985B088420BD101A893
:101A800001F0A6FB049800900DF1040C04A09CE862
:101A90000E0001F0AFF905B000BD0000E800002025
:101AA00053544154453A205B256420256420256425
:101AB0002025645D0D0A00007047704770470000E4
:101AC000F8B5016804460868CA684B6910F00F0F42
:101AD0004FF0000559D003F0010602F49077374328
:101AE00065D0C10705D0D10503D5616C41F0010176
:101AF0006164410705D5D90703D0616C41F002014B
:101B00006164810705D5D90703D0616C41F00401F8
:101B10006164010707D502F02001314303D0616CF5
:101B200041F008016164616C00293AD0800604D557
:101B3000900602D5204601F05EF820684069616C8D
:101B4000C0F38010090700D460B3204601F02CF8E0
:101B500020684069400621D52068143050E8001FF5
:101B600021F0400140E80012002AF5D1E06BA8B155
:101B70006D494163E06BFEF7AFFE002811D0E06BCA
:101B8000416B01B0BDE8F040084783060FD59306CE
:101B90000DD52046BDE8F84001F02DB82046FFF7EE
:101BA0008DFFF8BD2046FFF789FF6564F8BD266B01
:101BB0002023012E7CD1C6067AD5D60678D50868B2
:101BC0004868009048694FF00206400640D5E16B36
:101BD000086840680004000CE8D0A28D8242E5D974
:101BE000E085886920282DD020680C3050E8001F3F
:101BF00021F4807140E80012002AF5D120681430E9
:101C000050E8001F21F0010140E80012002AF5D140
:101C10002068143050E8001F21F0400140E8001215
:101C2000002AF5D184F84230256320680C3050E852
:101C3000001F21F0100140E80012002AF5D1E06BEE
:101C4000FEF726FE6663A08DE18D401A81B22AE080
:101C5000A08DE18D401A81B2E08D0028A6D0002928
:101C6000A4D022680C3252E8000F20F4907042E8B1
:101C70000007002FF5D12068143050E8002F22F023
:101C8000010240E80027002FF5D184F84230256397
:101C900020680C3050E8002F22F0100240E80023AA
:101CA000002BF5D166632046FFF707FFF8BDFFE77D
:101CB00005062BD5150629D594F841002128F5D124
:101CC000A068B0F5805F01D12069B0B1206A411CE5
:101CD0002162216800784860E08C401E0004000CFE
:101CE000E084E3D12068C16821F08001C1602068F0
:101CF000C16841F04001C160D8E7206A0088C0F3A4
:101D000008004860206A801C2062E5E74006CDD5C7
:101D10005006CBD5CA68204622F04002CA6084F83B
:101D2000413000F0C6F8C1E7992B000870B50400F7
:101D300004D094F84100002510B106E0012070BDE8
:101D400084F84050204600F023F8242084F8410015
:101D50002068C16821F40051C160204600F0ACFF4A
:101D60002068016921F4904101612068416921F0F6
:101D70002A0141612068C16841F40051C160656475
:101D8000202084F8410084F842006563002070BD83
:101D900030B585B000240094019402940394006847
:101DA000184988422CD11848816941F480418161E9
:101DB000816901F480410491816941F004018161EC
:101DC0008069124D00F0040004904FF40070009000
:101DD000022001900320039069462846FEF7DAFDB1
:101DE0002815CDE90004694628460294FEF7D2FD85
:101DF000002211462520FFF727F82520FFF716F8C7
:101E000005B030BD0038014000100240000801401C
:101E100070472DE9F843044690F84100984616466D
:101E20000D46202802D00220BDE8F88385B17EB19E
:101E300000206064212084F84100FEF7A5FEA684FE
:101E40008146E684A0682027B0F5805F02D003E0D9
:101E50000120E9E7206910B12E4600250EE000269A
:101E60000CE08021204600F083FFA8B9C6B116F827
:101E7000010B21684860E08C401EE084E08C4B46FA
:101E80004FF00002CDF800800028EAD14FF0400169
:101E9000204600F06DFF40B184F841700320C3E795
:101EA00035F8020BC0F30800E3E784F84170002026
:101EB000BAE77047FEE7000010B501460E48FEF78E
:101EC000A2FA04460346042200210C4800F065FAF9
:101ED00023460C220821094800F05FFA2346042219
:101EE0000021054800F078FA23460C22BDE8104096
:101EF0000821014800F070BAA00000203001002045
:101F000010B501460D48FEF77EFA0446034604224A
:101F100000210B4800F041FA0C220821084800F08B
:101F2000A3FA04220021054800F09EFA23460C2261
:101F3000BDE810400821014800F02FBAA0000020A1
:101F40003001002010B501460D48FEF75CFA04464A
:101F5000042200210B4800F087FA23460C220821B6
:101F6000084800F039FA234604220021044800F012
:101F700033FA0C22BDE810400821014800F074BA81
:101F8000A00000203001002010B501460E48FEF7E9
:101F90003AFA04460346042200210C4800F0FDF9F9
:101FA00023460C220821094800F016FA2346042291
:101FB0000021054800F010FA23460C22BDE810402D
:101FC0000821014800F0E9B9A000002030010020FC
:101FD0000B2825D2DFE800F02406090C0F12151893
:101FE0001B1E21000846FEF78FBA0846FEF7E6B929
:101FF0000846FFF761BF084600F0A6BA0846FFF79B
:10200000C3BF084600F008BB0846FFF79BBF084661
:10201000FFF776BF084600F0DDBA084600F0B8BA10
:1020200000F01EBB3EB500211148009101910F4AFE
:102030000291026081600173017501244FF46022F6
:102040000461C2614160FEF769FB08B1FEF75AFA0C
:102050000820CDE900040720029069460448FEF7F5
:10206000DFFA002801D0FEF74DFA3EBD0024014002
:102070001C00002070B586B0002424480094019410
:1020800002940394816941F010018161816901F03A
:1020900010010491816941F020018161816901F0A1
:1020A00020010491816941F004018161816901F09D
:1020B00004010491816941F0080181618069144E35
:1020C00000F008004FF400550490002229463046E5
:1020D000FEF755FD01210220CDE90210CDE90051A6
:1020E00069463046FEF756FCF020CDE9000469460B
:1020F00008480294FEF74EFC07480095CDE901041C
:1021000069460648FEF746FC06B070BD0010024066
:10211000001001400008014000001110000C0140B7
:102120000D4810B50B4901600C49416000214FF486
:1021300080428160C0E9031241618161C161016235
:10214000FEF728FD002803D0BDE81040FEF7DAB9FD
:1021500010BD0000005800404C000020801A06000E
:1021600010B58EB000240794089409940A940B9437
:102170001C2168460C94FDF7DCFF2A484FF0804193
:1021800001604721C0E9011440F2E731C0E90314BE
:102190008461FFF7B7F908B1FEF7B4F94FF4805046
:1021A000079007A91F48FFF73DFA08B1FEF7AAF903
:1021B0001C48FFF7E2FB08B1FEF7A4F90B940BA94A
:1021C00018480C94FFF76AF908B1FEF79BF96020F4
:1021D000CDE9000402940022694612480494FFF7F6
:1021E00066FB08B1FEF78EF9042269460D48FFF739
:1021F0005EFB08B1FEF786F9082269460948FFF739
:1022000056FB08B1FEF77EF90C2269460548FFF738
:102210004EFB08B1FEF776F90248FFF70BFB0EB054
:1022200010BD0000A000002010B586B000241848A2
:102230000094019402940394049414490594016059
:1022400041F61F41C0E9011442F20F71C0E90314C5
:1022500080218161FFF756F908B1FEF753F94FF479
:102260008050009069460A48FFF7DCF908B1FEF794
:1022700049F9049404A906480594FFF70FF90028CA
:1022800001D0FEF73FF906B010BD00000004004089
:10229000E800002010B58EB000240794089409943B
:1022A0000A940B941C2168460C94FDF742FF2B48BE
:1022B000294901604721C0E9011440F2E731C0E932
:1022C000031480218161FFF71DF908B1FEF71AF9A7
:1022D0004FF48050079007A92048FFF7A3F908B1F1
:1022E000FEF710F91D48FFF748FB08B1FEF70AF9A1
:1022F0000B940BA919480C94FFF7D0F808B1FEF71E
:1023000001F96020CDE900040294002269461348D7
:102310000494FFF7CCFA08B1FEF7F4F804226946FA
:102320000E48FFF7C4FA08B1FEF7ECF80822694638
:102330000A48FFF7BCFA08B1FEF7E4F80C22694638
:102340000648FFF7B4FA08B1FEF7DCF80348FFF7D8
:1023500071FA0EB010BD00000008004030010020EE
:102360000C4810B50A4901604FF4E1314160002189
:1023700081600C22C160C0E904128161C161FFF774
:10238000D5FC002803D0BDE81040FEF7BBB810BD57
:102390000038014078010020FEE730B504680025D0
:1023A00061B104290CD008290CD0256462B1042A3B
:1023B0000DD00068082A0DD0036430BD6563F5E7D1
:1023C000A563F3E7E563F1E70068436330BD0068A8
:1023D000836330BDC36330BD10B5046869B104299F
:1023E0000DD008290DD02364002162B1042A0DD03C
:1023F0000068082A0DD0016410BD6363F4E7A3638D
:10240000F2E7E363F0E70068416310BD00688163B1
:1024100010BDC16310BD000010B500211048FFF7CA
:10242000DBFA04210E48FFF7D7FA08210C48FFF722
:10243000D3FA0C210A48FFF7CFFA00210948FFF729
:10244000CBFA04210748FFF7C7FA08210548FFF730
:10245000C3FABDE810400C210248FFF7BDBA0000E6
:10246000A00000203001002010B50468002361B1F5
:1024700004290CD008290CD0236462B1042A0DD0A1
:102480000068082A0DD0036410BD6363F5E7A363F9
:10249000F3E7E363F1E70068436310BD006883631B
:1024A00010BDC36310BDFEE72DE9F0410A460446A6
:1024B000C1681046FDF79AFE064631466069FDF791
:1024C00043FE6061A169FDF7E3FE01D2A06960618E
:1024D000A069616980F00040FDF7DAFE03D2A069CF
:1024E00080F00040606130462169FDF77FFE0146C3
:1024F000A068FDF781FE074661696068FDF77CFE14
:10250000054631462068FDF777FE2946FDF71CFE9B
:102510003946FDF719FE0546E169FDF7B9FE00D21F
:10252000E569E069294680F00040FDF7B1FE02D27E
:10253000E06980F0004528462661BDE8F081002171
:10254000416101617047704710B501460E48FDF7C3
:102550005AFF04460346042200210C48FFF73CFFC3
:1025600023460C2208210948FFF736FF23460422A0
:1025700000210548FFF711FF23460C22BDE810405B
:1025800008210148FFF709BFA0000020300100200A
:1025900010B501460D48FDF736FF04460422002120
:1025A0000B48FFF761FF23460C2208210848FFF77C
:1025B000F4FE2346042200210448FFF7EEFE0C221D
:1025C000BDE8104008210148FFF74EBFA0000020E1
:1025D0003001002010B501460D48FDF714FF0446F8
:1025E0000346042200210B48FFF7F6FE0C220821C7
:1025F0000848FFF739FF042200210548FFF734FFA0
:1026000023460C22BDE8104008210148FFF7E4BE34
:10261000A00000203001002010B501460E48FDF753
:10262000F2FE04460346042200210C48FFF7D4FEC4
:1026300023460C2208210948FFF7AFFE2346042257
:1026400000210548FFF7A9FE23460C22BDE81040F3
:1026500008210148FFF7C0BEA00000203001002083
:1026600010B5042200210A48FFF7FEFE0C220821C3
:102670000748FFF7F9FE042200210648FFF7F4FEA1
:102680000C22BDE8104008210248FFF7EDBE000013
:1026900030010020A00000207047FEF76FBB30B56E
:1026A00093B028216846FDF744FD14210AA8FDF7E0
:1026B00040FD002501200F951095119501041295FC
:1026C0008DE8230004904FF4E010CDE908100224B7
:1026D00007946846FEF73CFD08B172B6FEE70AA90A
:1026E0000F2081E831004FF48060CDE90D05022113
:1026F0000AA8FEF751FC08B172B6FEE74FF400409D
:1027000011900F940FA8FEF7D1FB002801D072B6EC
:10271000FEE713B030BD70470148FEF7F2BF00007E
:10272000E8000020F0B50268194B1A4C1A4D4FF022
:102730008047984205D0B84203D0A04201D0A842B9
:1027400003D122F070064A683243984205D0B8425D
:1027500003D0A04201D0A84203D122F44074CA6839
:1027600022434C6922F08002224302608A68C262DE
:102770000A688262984201D10969016301214161BD
:102780000169C90703D0016921F001010161F0BDB0
:10279000002C0140000400400008004010B501F08A
:1027A0001F030121046A99408C430462016A9A4024
:1027B0001143016210BD10B5846842EA032224F47B
:1027C0007F440A432243826010BD826822F0700277
:1027D0000A4342F0070181607047000030B5036A88
:1027E000026A22F0010202624268846924F07305E1
:1027F0000C682C4323F002058B682B430A4DA8423A
:102800000BD123F00805CB6822F440722B434D69AD
:1028100023F0040315438A692A43426084614968AE
:102820004163036230BD0000002C014030B5026AF4
:10283000036A23F010030362436884690D6824F47B
:10284000E64444EA05248D6822F0200242EA05129B
:102850000B4DA8420ED1CD6822F0800242EA05124B
:102860004D6923F4406343EA85038D6922F04002F9
:1028700043EA85034360846149688163026230BD35
:10288000002C014030B5036A026A22F480720262B1
:102890004268C46923F4007324F073050C682C4368
:1028A0008D6843EA05230C4DA8420ED1CD6823F470
:1028B000006343EA05234D6922F4405242EA0512BF
:1028C0008D6923F4806342EA05124260C46149685D
:1028D000C163036230BD0000002C014030B5046AC2
:1028E000026A22F4805202624268C3690D6823F4CE
:1028F000E64343EA05238D6824F4005444EA053492
:10290000064DA84204D14D6922F4804242EA851264
:102910004260C36149680164046230BD002C01401B
:1029200010B5036A046A24F001040462846924F087
:10293000F00444EA021423F00A020A4384610262AA
:1029400010BD10B5036A046A24F01004046284699F
:1029500023F0A00324F4704444EA023243EA011154
:102960008261016210BD00001FB50446684600F098
:102970002FFC00994FF49660012918D0002972D0DD
:10298000012916D0002911D1039800280ED10198F1
:10299000012867D0002878D0012877D0002805D1F9
:1029A0000298002802D1A26B1E2190471FBD0399F7
:1029B000A9B103990129F9D101990129F6D1029907
:1029C0000129F3D1FDF7D4FF2821A26B0420904701
:1029D000684600F0FDFB01980028F9D01FBD019961
:1029E000012909D00029F9D102980028F6D11E2129
:1029F000A26B0320904730E00299012906D00029FC
:102A0000ECD12821A26B032090471FE0FDF7B0FF17
:102A10002821A26B0320904741A000F0EBF9684603
:102A200000F0D6FB08E040A000F0E4F9684600F0B2
:102A3000CFFB6420FDF79CFF02980028F3D03BA059
:102A400000F0D8F91FBD684600F0C2FB02980028CC
:102A5000F9D01FBD684600F0BBFB02980028F9D0F2
:102A60001FBD00E036E0039901298DD101990129AC
:102A70000DD00029F4D10298012818D00028EFD1F8
:102A80001E21A26B0420904720E032E025E002994D
:102A90000129E5D1FDF76CFF2821A26B04209047A6
:102AA000684600F095FB01980028F9D0D8E7282166
:102AB000A26B0420904702E0684600F089FB019871
:102AC0000028F9D0CCE7684600F082FB0198002886
:102AD000F9D0C5E70298012807D002980028BFD195
:102AE0001E21A26B0320904716E028210120A26B33
:102AF0005BE7029801287FF453AF1E21A26B0420EC
:102B0000904702E0684600F063FB01980028F9D086
:102B1000A6E7684600F05CFB02980028F9D09FE722
:102B20006C656674000000006200000073746F70D2
:102B3000000000007FB50546684600F049FB684686
:102B4000FDF706FD044613488442686812D1016906
:102B50006FF0220011F1FF4F01D3232107E0B1F5FF
:102B6000000F02DB0146232001E000210846FDF7AB
:102B700057FC7FBD426A21469047282524F000413A
:102B8000B1F1814F00DB1925FDF768FB291A2844B4
:102B9000EDE700000000C84210B5406A0021C18581
:102BA000C184FEF78BFF10BD01680C3151E8002F86
:102BB00022F4907241E80023002BF5D10168143112
:102BC00051E8002F22F0010241E80023002BF5D14B
:102BD000016B012909D101680C3151E8002F22F065
:102BE000100241E80023002BF5D1202180F842108B
:102BF00000210163704708B590F84210222901D0E6
:102C0000022008BD82684FF480539A4201D10169C5
:102C100021B1816A9A421BD04AB10AE00268816AF6
:102C20005268C2F308020A80816A891C08E00269BE
:102C300072B10268526802F07F020A70816A491C10
:102C40008162C18D491E0904090CC18503D01BE0B6
:102C500002685268F1E70168CA6822F02002CA607F
:102C60000168CA6822F48072CA6001684A6922F069
:102C700001024A61202180F8421000214163026B69
:102C8000012A03D0FFF7C4F8002008BD01630168E2
:102C90000C3151E8002F22F0100241E80023002BF4
:102CA000F5D101680A68D20602D50A684968009120
:102CB000818DFEF702FFE7E770B504460068016901
:102CC000E26821F44051114301612169A068084381
:102CD000616908432168CA6841F20C639A43024360
:102CE000CA6020684169A26921F4407111434161C1
:102CF0001E492068884202D1FEF7F4F901E0FEF790
:102D0000E1F900EBC00101EB001260686421800072
:102D1000B2FBF0F3B3FBF1F36FF018067343B2FBB1
:102D2000F0F5B2FBF0F605EB8305322303EB051556
:102D3000B5FBF1F5B6FBF1F605F0F00505EB061570
:102D4000B2FBF0F6B2FBF0F0B0FBF1F06FF018025E
:102D5000504306EB800003EB0010B0FBF1F021685C
:102D600000F00F002844886070BD0000003801406A
:102D70002DE9F843984617460D460446089E24E080
:102D8000701C22D0FDF700FFA0EB0800B0421AD85B
:102D9000CEB12068C168490717D5802D15D0402DC8
:102DA00013D00168C94309070FD4016800254068A2
:102DB00000902046FFF7F8FE0820606484F8405039
:102DC0000120BDE8F8830320FBE72068006835EAAE
:102DD000000004D00020B842D2D00020F1E701204A
:102DE000F9E700000148FEF76BBE00007801002003
:102DF000FEE700000FB4054B10B503A9044A029882
:102E000000F028F810BC5DF814FB000091300008B9
:102E1000100000200907090E002804DB00F1E02063
:102E200080F80014704700F00F0000F1E02080F8F7
:102E3000141D704702E008C8121F08C1002AFAD109
:102E400070477047002001E001C1121F002AFBD12A
:102E5000704700002DE9FF4F89B09B4604460025CE
:102E600006E025280BD05A460B999047641C6D1C30
:102E700020780028F5D10DB02846BDE8F08F002756
:102E8000B8460122474900E0074314F8013F203BC0
:102E900002FA03F00842F7D120782E2819D114F84D
:102EA000010F47F004072A280ED06FF02F02207878
:102EB000A0F1300109290CD808EB880102EB41018F
:102EC00000EB0108641CF2E70A98641C50F8048BBC
:102ED0000A9020780028CED0642808D0692806D02F
:102EE00075281ED05A460B9990476D1C58E00A99D8
:102EF0004FF00A0901C90A91002802DA40422D2147
:102F000002E0390504D52B218DF82010012103E0C2
:102F1000F90704D02021F7E78A4608AE0DE000212A
:102F2000FAE70A994FF00A0901C90A91F7E74946F9
:102F3000FDF7B8F9303106F8011D0028F7D1ADEBE7
:102F4000060000F12009780701D44FF00108C845B8
:102F500002DDA8EB090000E000208046002706E023
:102F600008A85A46C05D0B9990476D1C7F1C5745B9
:102F7000F6DB04E030205A460B9990476D1CB8F1FF
:102F80000001A8F10108F5DC05E016F8010B5A462E
:102F90000B9990476D1CB9F10001A9F10109F4DC0E
:102FA000641C65E70928010010B5442000F0DAF838
:102FB000040027D0642020800020A07000F040F89A
:102FC0006060AFF21B00A0600F48E0600F48206116
:102FD0000F4860610F48A0610F48E0610F48206210
:102FE0000F4860620F48A0620F48E0620F482063FC
:102FF0000F4860630F48A0630F48E0630F482064E8
:10300000204610BD002010BD6126000809050008FB
:10301000BD030008B91E000849250008891F0008E3
:1030200019260008451F0008011F0008D5250008C3
:1030300091250008D11F000869290008352B0008D8
:1030400010B52C2000F08EF8002813D00A4901603A
:103050000A4A0021C0E90112094A8261C160094A95
:1030600001614161AFF22701C0E9072106494162D0
:103070000649816210BD00000000724200008841D4
:10308000000048420000A042A92400083F25000893
:1030900013B54FF6FF73012269460248FEF7B9FEE9
:1030A00000981CBD78010020FDF770FEFFF7F7FACD
:1030B000FEF7E0FFFFF754F8FFF752F9FFF7EAF8E1
:1030C000FFF7B2F8FEF7AEFFFFF72AF84FF400550E
:1030D000002229461C48FDF752FDFFF79DF9FFF736
:1030E00063FF06461948FEF771FA194C2946204637
:1030F000FDF740FD0128F9D016A0FFF77BFE4FF445
:10310000FA77316C304688470A20FDF731FC2946B2
:103110002046FDF72FFD0028F3D10021B26B0846B1
:1031200090470EA0FFF766FE29462046FDF722FDD8
:103130000028F9D029462046FDF71CFD0128F9D0CA
:103140003846FDF715FCDCE700100140E8000020E0
:10315000000C0140737461727400000073746F702E
:1031600000000000F0B50B30154D20F007010024E1
:10317000144A0FE003688B420BD38B4205D95E1AC9
:1031800043184768C3E9006700E04368136002C062
:1031900004E0021D10680028ECD12046002802D16E
:1031A000286808B10020F0BD064A07481060074AA9
:1031B000121A22F00702C0E9002401202860D7E794
:1031C0001800002014000020C4010020C0030020CB
:1031D00070B5134D044610212846FDF7CBFCB8B15D
:1031E0000020206020212846FDF7C4FC90B100207B
:1031F000606040212846FDF7BDFC68B10020A0605A
:1032000080212846FDF7B6FC40B10020E06070BD8B
:103210000120E6E70120EBE70120F0E70120F5E7D8
:1032200000080140010202030405060708090A0B11
:103230000C0D0E0F10100000000000000000010235
:10324000030406070809000000000102030400004F
:1032500070320008000000201C000000342E00081E
:103260008C3200081C000020A4070000442E000837
:1032700001000000100000000000000000127A00B1
:0C32800000000000000000000000000042
:04000005080000ED02
:00000001FF
